{
  "_format": "hh-sol-artifact-1",
  "contractName": "SnakeGame",
  "sourceName": "contracts/snake.sol",
  "abi": [
    {
      "inputs": [
        {
          "internalType": "address",
          "name": "_uloTokenAddress",
          "type": "address"
        }
      ],
      "stateMutability": "nonpayable",
      "type": "constructor"
    },
    {
      "inputs": [
        {
          "internalType": "address",
          "name": "owner",
          "type": "address"
        }
      ],
      "name": "OwnableInvalidOwner",
      "type": "error"
    },
    {
      "inputs": [
        {
          "internalType": "address",
          "name": "account",
          "type": "address"
        }
      ],
      "name": "OwnableUnauthorizedAccount",
      "type": "error"
    },
    {
      "anonymous": false,
      "inputs": [
        {
          "indexed": true,
          "internalType": "address",
          "name": "player",
          "type": "address"
        },
        {
          "indexed": false,
          "internalType": "uint8",
          "name": "level",
          "type": "uint8"
        },
        {
          "indexed": false,
          "internalType": "uint256",
          "name": "timestamp",
          "type": "uint256"
        }
      ],
      "name": "GameStarted",
      "type": "event"
    },
    {
      "anonymous": false,
      "inputs": [
        {
          "indexed": true,
          "internalType": "address",
          "name": "previousOwner",
          "type": "address"
        },
        {
          "indexed": true,
          "internalType": "address",
          "name": "newOwner",
          "type": "address"
        }
      ],
      "name": "OwnershipTransferred",
      "type": "event"
    },
    {
      "anonymous": false,
      "inputs": [
        {
          "indexed": true,
          "internalType": "address",
          "name": "player",
          "type": "address"
        },
        {
          "indexed": false,
          "internalType": "string",
          "name": "playerName",
          "type": "string"
        },
        {
          "indexed": false,
          "internalType": "uint256",
          "name": "score",
          "type": "uint256"
        },
        {
          "indexed": false,
          "internalType": "uint8",
          "name": "level",
          "type": "uint8"
        },
        {
          "indexed": false,
          "internalType": "uint256",
          "name": "timestamp",
          "type": "uint256"
        }
      ],
      "name": "ScoreSubmitted",
      "type": "event"
    },
    {
      "anonymous": false,
      "inputs": [
        {
          "indexed": true,
          "internalType": "address",
          "name": "player",
          "type": "address"
        },
        {
          "indexed": false,
          "internalType": "uint256",
          "name": "amount",
          "type": "uint256"
        }
      ],
      "name": "TokensMinted",
      "type": "event"
    },
    {
      "inputs": [],
      "name": "MAX_LEVELS",
      "outputs": [
        {
          "internalType": "uint8",
          "name": "",
          "type": "uint8"
        }
      ],
      "stateMutability": "view",
      "type": "function"
    },
    {
      "inputs": [
        {
          "internalType": "address",
          "name": "playerAddress",
          "type": "address"
        }
      ],
      "name": "getPlayerStats",
      "outputs": [
        {
          "components": [
            {
              "internalType": "uint256",
              "name": "lastScore",
              "type": "uint256"
            },
            {
              "internalType": "uint256",
              "name": "highestScore",
              "type": "uint256"
            },
            {
              "internalType": "uint256",
              "name": "gamesPlayed",
              "type": "uint256"
            }
          ],
          "internalType": "struct SnakeGame.Player",
          "name": "",
          "type": "tuple"
        }
      ],
      "stateMutability": "view",
      "type": "function"
    },
    {
      "inputs": [
        {
          "internalType": "uint8",
          "name": "level",
          "type": "uint8"
        },
        {
          "internalType": "uint256",
          "name": "limit",
          "type": "uint256"
        }
      ],
      "name": "getRecentScores",
      "outputs": [
        {
          "components": [
            {
              "internalType": "address",
              "name": "player",
              "type": "address"
            },
            {
              "internalType": "string",
              "name": "playerName",
              "type": "string"
            },
            {
              "internalType": "uint256",
              "name": "score",
              "type": "uint256"
            },
            {
              "internalType": "uint8",
              "name": "level",
              "type": "uint8"
            },
            {
              "internalType": "uint256",
              "name": "timestamp",
              "type": "uint256"
            }
          ],
          "internalType": "struct SnakeGame.Score[]",
          "name": "",
          "type": "tuple[]"
        }
      ],
      "stateMutability": "view",
      "type": "function"
    },
    {
      "inputs": [
        {
          "internalType": "uint8",
          "name": "",
          "type": "uint8"
        },
        {
          "internalType": "uint256",
          "name": "",
          "type": "uint256"
        }
      ],
      "name": "leaderboards",
      "outputs": [
        {
          "internalType": "address",
          "name": "player",
          "type": "address"
        },
        {
          "internalType": "string",
          "name": "playerName",
          "type": "string"
        },
        {
          "internalType": "uint256",
          "name": "score",
          "type": "uint256"
        },
        {
          "internalType": "uint8",
          "name": "level",
          "type": "uint8"
        },
        {
          "internalType": "uint256",
          "name": "timestamp",
          "type": "uint256"
        }
      ],
      "stateMutability": "view",
      "type": "function"
    },
    {
      "inputs": [],
      "name": "owner",
      "outputs": [
        {
          "internalType": "address",
          "name": "",
          "type": "address"
        }
      ],
      "stateMutability": "view",
      "type": "function"
    },
    {
      "inputs": [
        {
          "internalType": "address",
          "name": "",
          "type": "address"
        }
      ],
      "name": "players",
      "outputs": [
        {
          "internalType": "uint256",
          "name": "lastScore",
          "type": "uint256"
        },
        {
          "internalType": "uint256",
          "name": "highestScore",
          "type": "uint256"
        },
        {
          "internalType": "uint256",
          "name": "gamesPlayed",
          "type": "uint256"
        }
      ],
      "stateMutability": "view",
      "type": "function"
    },
    {
      "inputs": [],
      "name": "renounceOwnership",
      "outputs": [],
      "stateMutability": "nonpayable",
      "type": "function"
    },
    {
      "inputs": [
        {
          "internalType": "uint8",
          "name": "level",
          "type": "uint8"
        }
      ],
      "name": "startGame",
      "outputs": [],
      "stateMutability": "nonpayable",
      "type": "function"
    },
    {
      "inputs": [
        {
          "internalType": "string",
          "name": "playerName",
          "type": "string"
        },
        {
          "internalType": "uint256",
          "name": "score",
          "type": "uint256"
        },
        {
          "internalType": "uint8",
          "name": "level",
          "type": "uint8"
        }
      ],
      "name": "submitScore",
      "outputs": [],
      "stateMutability": "nonpayable",
      "type": "function"
    },
    {
      "inputs": [
        {
          "internalType": "address",
          "name": "newOwner",
          "type": "address"
        }
      ],
      "name": "transferOwnership",
      "outputs": [],
      "stateMutability": "nonpayable",
      "type": "function"
    },
    {
      "inputs": [],
      "name": "uloToken",
      "outputs": [
        {
          "internalType": "contract ULOToken",
          "name": "",
          "type": "address"
        }
      ],
      "stateMutability": "view",
      "type": "function"
    }
  ],
  "bytecode": "0x608060405234801561001057600080fd5b50604051610ed8380380610ed883398101604081905261002f916100d4565b338061005557604051631e4fbdf760e01b81526000600482015260240160405180910390fd5b61005e81610084565b50600180546001600160a01b0319166001600160a01b0392909216919091179055610104565b600080546001600160a01b038381166001600160a01b0319831681178455604051919092169283917f8be0079c531659141344cd1fd0a4f28419497f9722a3daafe3b4186f6b6457e09190a35050565b6000602082840312156100e657600080fd5b81516001600160a01b03811681146100fd57600080fd5b9392505050565b610dc5806101136000396000f3fe608060405234801561001057600080fd5b50600436106100a95760003560e01c80639200daa4116100715780639200daa414610148578063b165971814610168578063b4d4e1c91461017b578063e2eb41ff1461019f578063e6ab6079146101e8578063f2fde38b146101fb57600080fd5b80630f3aa104146100ae5780634fd66eae146100de5780636702c7bf14610113578063715018a61461012d5780638da5cb5b14610137575b600080fd5b6001546100c1906001600160a01b031681565b6040516001600160a01b0390911681526020015b60405180910390f35b6100f16100ec3660046108f8565b61020e565b60408051825181526020808401519082015291810151908201526060016100d5565b61011b600581565b60405160ff90911681526020016100d5565b610135610274565b005b6000546001600160a01b03166100c1565b61015b61015636600461093e565b610288565b6040516100d591906109ae565b610135610176366004610a69565b6104ca565b61018e61018936600461093e565b6106be565b6040516100d5959493929190610b34565b6101cd6101ad3660046108f8565b600260208190526000918252604090912080546001820154919092015483565b604080519384526020840192909252908201526060016100d5565b6101356101f6366004610b78565b6107a6565b6101356102093660046108f8565b61083d565b61023260405180606001604052806000815260200160008152602001600081525090565b506001600160a01b0316600090815260026020818152604092839020835160608101855281548152600182015492810192909252909101549181019190915290565b61027c61087b565b61028660006108a8565b565b606060018360ff16101580156102a25750600560ff841611155b6102c75760405162461bcd60e51b81526004016102be90610b93565b60405180910390fd5b60ff83166000908152600360205260408120805490919084106102eb5781546102ed565b835b905060008167ffffffffffffffff81111561030a5761030a610a53565b60405190808252806020026020018201604052801561037957816020015b6103666040518060a0016040528060006001600160a01b031681526020016060815260200160008152602001600060ff168152602001600081525090565b8152602001906001900390816103285790505b50905060005b828110156104be5783548490829061039990600190610bd0565b6103a39190610bd0565b815481106103b3576103b3610be3565b60009182526020918290206040805160a0810190915260059092020180546001600160a01b0316825260018101805492939192918401916103f390610bf9565b80601f016020809104026020016040519081016040528092919081815260200182805461041f90610bf9565b801561046c5780601f106104415761010080835404028352916020019161046c565b820191906000526020600020905b81548152906001019060200180831161044f57829003601f168201915b505050918352505060028201546020820152600382015460ff16604082015260049091015460609091015282518390839081106104ab576104ab610be3565b602090810291909101015260010161037f565b50925050505b92915050565b60018160ff16101580156104e25750600560ff821611155b6104fe5760405162461bcd60e51b81526004016102be90610b93565b336000908152600260205260409020828155600181015483111561052457600181018390555b6040805160a081018252338152602080820187815282840187905260ff86166060840181905242608085015260009081526003835293842080546001808201835591865292909420835160059093020180546001600160a01b0319166001600160a01b039093169290921782555191928392908201906105a49082610c84565b506040828101516002830155606083015160038301805460ff191660ff90921691909117905560809092015160049182015560015491516340c10f1960e01b81523391810191909152602481018690526001600160a01b03909116906340c10f1990604401600060405180830381600087803b15801561062357600080fd5b505af1158015610637573d6000803e3d6000fd5b50505050336001600160a01b03167f44bb76648b95c2377a7e007668a351f0c8a6e49f6dc629e29131f28f52ecc5708686864260405161067a9493929190610d44565b60405180910390a260405184815233907f3f2c9d57c068687834f0de942a9babb9e5acab57d516d3480a3c16ee165a42739060200160405180910390a25050505050565b600360205281600052604060002081815481106106da57600080fd5b6000918252602090912060059091020180546001820180546001600160a01b03909216945091925061070b90610bf9565b80601f016020809104026020016040519081016040528092919081815260200182805461073790610bf9565b80156107845780601f1061075957610100808354040283529160200191610784565b820191906000526020600020905b81548152906001019060200180831161076757829003601f168201915b50505050600283015460038401546004909401549293909260ff909116915085565b60018160ff16101580156107be5750600560ff821611155b6107da5760405162461bcd60e51b81526004016102be90610b93565b3360009081526002602081905260408220018054916107f883610d76565b90915550506040805160ff8316815242602082015233917f1aa65d34adf10bea00c27032fb6ce87a065fb7678119e19aa7ed3952f868adb4910160405180910390a250565b61084561087b565b6001600160a01b03811661086f57604051631e4fbdf760e01b8152600060048201526024016102be565b610878816108a8565b50565b6000546001600160a01b031633146102865760405163118cdaa760e01b81523360048201526024016102be565b600080546001600160a01b038381166001600160a01b0319831681178455604051919092169283917f8be0079c531659141344cd1fd0a4f28419497f9722a3daafe3b4186f6b6457e09190a35050565b60006020828403121561090a57600080fd5b81356001600160a01b038116811461092157600080fd5b9392505050565b803560ff8116811461093957600080fd5b919050565b6000806040838503121561095157600080fd5b61095a83610928565b946020939093013593505050565b6000815180845260005b8181101561098e57602081850181015186830182015201610972565b506000602082860101526020601f19601f83011685010191505092915050565b600060208083018184528085518083526040925060408601915060408160051b87010184880160005b83811015610a4557888303603f19018552815180516001600160a01b031684528781015160a089860181905290610a1082870182610968565b838a0151878b015260608085015160ff16908801526080938401519390960192909252505093860193908601906001016109d7565b509098975050505050505050565b634e487b7160e01b600052604160045260246000fd5b600080600060608486031215610a7e57600080fd5b833567ffffffffffffffff80821115610a9657600080fd5b818601915086601f830112610aaa57600080fd5b813581811115610abc57610abc610a53565b604051601f8201601f19908116603f01168101908382118183101715610ae457610ae4610a53565b81604052828152896020848701011115610afd57600080fd5b82602086016020830137600060208483010152809750505050505060208401359150610b2b60408501610928565b90509250925092565b6001600160a01b038616815260a060208201819052600090610b5890830187610968565b60408301959095525060ff92909216606083015260809091015292915050565b600060208284031215610b8a57600080fd5b61092182610928565b6020808252600d908201526c125b9d985b1a59081b195d995b609a1b604082015260600190565b634e487b7160e01b600052601160045260246000fd5b818103818111156104c4576104c4610bba565b634e487b7160e01b600052603260045260246000fd5b600181811c90821680610c0d57607f821691505b602082108103610c2d57634e487b7160e01b600052602260045260246000fd5b50919050565b601f821115610c7f576000816000526020600020601f850160051c81016020861015610c5c5750805b601f850160051c820191505b81811015610c7b57828155600101610c68565b5050505b505050565b815167ffffffffffffffff811115610c9e57610c9e610a53565b610cb281610cac8454610bf9565b84610c33565b602080601f831160018114610ce75760008415610ccf5750858301515b600019600386901b1c1916600185901b178555610c7b565b600085815260208120601f198616915b82811015610d1657888601518255948401946001909101908401610cf7565b5085821015610d345787850151600019600388901b60f8161c191681555b5050505050600190811b01905550565b608081526000610d576080830187610968565b60208301959095525060ff929092166040830152606090910152919050565b600060018201610d8857610d88610bba565b506001019056fea2646970667358221220e0104d4ebd3a189a15803022f6b049b18f1fbdc22b4349058f7d5f0e832c49ce64736f6c63430008170033",
  "linkReferences": {},
  "deployedLinkReferences": {}
}