{
  "_format": "hh-sol-artifact-1",
  "contractName": "SnakeGame",
  "sourceName": "contracts/snake.sol",
  "abi": [
    {
      "inputs": [
        {
          "internalType": "address",
          "name": "_uloTokenAddress",
          "type": "address"
        }
      ],
      "stateMutability": "nonpayable",
      "type": "constructor"
    },
    {
      "inputs": [
        {
          "internalType": "address",
          "name": "owner",
          "type": "address"
        }
      ],
      "name": "OwnableInvalidOwner",
      "type": "error"
    },
    {
      "inputs": [
        {
          "internalType": "address",
          "name": "account",
          "type": "address"
        }
      ],
      "name": "OwnableUnauthorizedAccount",
      "type": "error"
    },
    {
      "anonymous": false,
      "inputs": [
        {
          "indexed": true,
          "internalType": "address",
          "name": "player",
          "type": "address"
        },
        {
          "indexed": false,
          "internalType": "uint8",
          "name": "level",
          "type": "uint8"
        },
        {
          "indexed": false,
          "internalType": "uint256",
          "name": "timestamp",
          "type": "uint256"
        }
      ],
      "name": "GameStarted",
      "type": "event"
    },
    {
      "anonymous": false,
      "inputs": [
        {
          "indexed": true,
          "internalType": "address",
          "name": "previousOwner",
          "type": "address"
        },
        {
          "indexed": true,
          "internalType": "address",
          "name": "newOwner",
          "type": "address"
        }
      ],
      "name": "OwnershipTransferred",
      "type": "event"
    },
    {
      "anonymous": false,
      "inputs": [
        {
          "indexed": true,
          "internalType": "address",
          "name": "player",
          "type": "address"
        },
        {
          "indexed": false,
          "internalType": "string",
          "name": "playerName",
          "type": "string"
        },
        {
          "indexed": false,
          "internalType": "uint256",
          "name": "score",
          "type": "uint256"
        },
        {
          "indexed": false,
          "internalType": "uint8",
          "name": "level",
          "type": "uint8"
        },
        {
          "indexed": false,
          "internalType": "uint256",
          "name": "timestamp",
          "type": "uint256"
        }
      ],
      "name": "ScoreSubmitted",
      "type": "event"
    },
    {
      "anonymous": false,
      "inputs": [
        {
          "indexed": true,
          "internalType": "address",
          "name": "player",
          "type": "address"
        },
        {
          "indexed": false,
          "internalType": "uint256",
          "name": "amount",
          "type": "uint256"
        }
      ],
      "name": "TokensMinted",
      "type": "event"
    },
    {
      "inputs": [],
      "name": "MAX_LEVELS",
      "outputs": [
        {
          "internalType": "uint8",
          "name": "",
          "type": "uint8"
        }
      ],
      "stateMutability": "view",
      "type": "function"
    },
    {
      "inputs": [
        {
          "internalType": "address",
          "name": "playerAddress",
          "type": "address"
        }
      ],
      "name": "getPlayerStats",
      "outputs": [
        {
          "components": [
            {
              "internalType": "uint256",
              "name": "lastScore",
              "type": "uint256"
            },
            {
              "internalType": "uint256",
              "name": "highestScore",
              "type": "uint256"
            },
            {
              "internalType": "uint256",
              "name": "gamesPlayed",
              "type": "uint256"
            }
          ],
          "internalType": "struct SnakeGame.Player",
          "name": "",
          "type": "tuple"
        }
      ],
      "stateMutability": "view",
      "type": "function"
    },
    {
      "inputs": [
        {
          "internalType": "uint8",
          "name": "level",
          "type": "uint8"
        },
        {
          "internalType": "uint256",
          "name": "limit",
          "type": "uint256"
        }
      ],
      "name": "getRecentScores",
      "outputs": [
        {
          "components": [
            {
              "internalType": "address",
              "name": "player",
              "type": "address"
            },
            {
              "internalType": "string",
              "name": "playerName",
              "type": "string"
            },
            {
              "internalType": "uint256",
              "name": "score",
              "type": "uint256"
            },
            {
              "internalType": "uint8",
              "name": "level",
              "type": "uint8"
            },
            {
              "internalType": "uint256",
              "name": "timestamp",
              "type": "uint256"
            }
          ],
          "internalType": "struct SnakeGame.Score[]",
          "name": "",
          "type": "tuple[]"
        }
      ],
      "stateMutability": "view",
      "type": "function"
    },
    {
      "inputs": [
        {
          "internalType": "uint8",
          "name": "",
          "type": "uint8"
        },
        {
          "internalType": "uint256",
          "name": "",
          "type": "uint256"
        }
      ],
      "name": "leaderboards",
      "outputs": [
        {
          "internalType": "address",
          "name": "player",
          "type": "address"
        },
        {
          "internalType": "string",
          "name": "playerName",
          "type": "string"
        },
        {
          "internalType": "uint256",
          "name": "score",
          "type": "uint256"
        },
        {
          "internalType": "uint8",
          "name": "level",
          "type": "uint8"
        },
        {
          "internalType": "uint256",
          "name": "timestamp",
          "type": "uint256"
        }
      ],
      "stateMutability": "view",
      "type": "function"
    },
    {
      "inputs": [],
      "name": "owner",
      "outputs": [
        {
          "internalType": "address",
          "name": "",
          "type": "address"
        }
      ],
      "stateMutability": "view",
      "type": "function"
    },
    {
      "inputs": [
        {
          "internalType": "address",
          "name": "",
          "type": "address"
        }
      ],
      "name": "players",
      "outputs": [
        {
          "internalType": "uint256",
          "name": "lastScore",
          "type": "uint256"
        },
        {
          "internalType": "uint256",
          "name": "highestScore",
          "type": "uint256"
        },
        {
          "internalType": "uint256",
          "name": "gamesPlayed",
          "type": "uint256"
        }
      ],
      "stateMutability": "view",
      "type": "function"
    },
    {
      "inputs": [],
      "name": "renounceOwnership",
      "outputs": [],
      "stateMutability": "nonpayable",
      "type": "function"
    },
    {
      "inputs": [
        {
          "internalType": "uint8",
          "name": "level",
          "type": "uint8"
        }
      ],
      "name": "startGame",
      "outputs": [],
      "stateMutability": "nonpayable",
      "type": "function"
    },
    {
      "inputs": [
        {
          "internalType": "string",
          "name": "playerName",
          "type": "string"
        },
        {
          "internalType": "uint256",
          "name": "score",
          "type": "uint256"
        },
        {
          "internalType": "uint8",
          "name": "level",
          "type": "uint8"
        }
      ],
      "name": "submitScore",
      "outputs": [],
      "stateMutability": "nonpayable",
      "type": "function"
    },
    {
      "inputs": [
        {
          "internalType": "address",
          "name": "newOwner",
          "type": "address"
        }
      ],
      "name": "transferOwnership",
      "outputs": [],
      "stateMutability": "nonpayable",
      "type": "function"
    },
    {
      "inputs": [],
      "name": "uloToken",
      "outputs": [
        {
          "internalType": "contract ULOToken",
          "name": "",
          "type": "address"
        }
      ],
      "stateMutability": "view",
      "type": "function"
    }
  ],
  "bytecode": "0x608060405234801561001057600080fd5b5060405161118038038061118083398101604081905261002f916100d4565b338061005557604051631e4fbdf760e01b81526000600482015260240160405180910390fd5b61005e81610084565b50600180546001600160a01b0319166001600160a01b0392909216919091179055610104565b600080546001600160a01b038381166001600160a01b0319831681178455604051919092169283917f8be0079c531659141344cd1fd0a4f28419497f9722a3daafe3b4186f6b6457e09190a35050565b6000602082840312156100e657600080fd5b81516001600160a01b03811681146100fd57600080fd5b9392505050565b61106d806101136000396000f3fe608060405234801561001057600080fd5b50600436106100a95760003560e01c80639200daa4116100715780639200daa414610148578063b165971814610168578063b4d4e1c91461017b578063e2eb41ff1461019f578063e6ab6079146101e8578063f2fde38b146101fb57600080fd5b80630f3aa104146100ae5780634fd66eae146100de5780636702c7bf14610113578063715018a61461012d5780638da5cb5b14610137575b600080fd5b6001546100c1906001600160a01b031681565b6040516001600160a01b0390911681526020015b60405180910390f35b6100f16100ec366004610b21565b61020e565b60408051825181526020808401519082015291810151908201526060016100d5565b61011b600581565b60405160ff90911681526020016100d5565b610135610274565b005b6000546001600160a01b03166100c1565b61015b610156366004610b67565b610288565b6040516100d59190610be1565b610135610176366004610c9c565b6104ca565b61018e610189366004610b67565b610706565b6040516100d5959493929190610d67565b6101cd6101ad366004610b21565b600260208190526000918252604090912080546001820154919092015483565b604080519384526020840192909252908201526060016100d5565b6101356101f6366004610dab565b6107ee565b610135610209366004610b21565b610885565b61023260405180606001604052806000815260200160008152602001600081525090565b506001600160a01b0316600090815260026020818152604092839020835160608101855281548152600182015492810192909252909101549181019190915290565b61027c6108c3565b61028660006108f0565b565b606060018360ff16101580156102a25750600560ff841611155b6102c75760405162461bcd60e51b81526004016102be90610dc6565b60405180910390fd5b60ff83166000908152600360205260408120805490919084106102eb5781546102ed565b835b905060008167ffffffffffffffff81111561030a5761030a610c86565b60405190808252806020026020018201604052801561037957816020015b6103666040518060a0016040528060006001600160a01b031681526020016060815260200160008152602001600060ff168152602001600081525090565b8152602001906001900390816103285790505b50905060005b828110156104be5783548490829061039990600190610e03565b6103a39190610e03565b815481106103b3576103b3610e16565b60009182526020918290206040805160a0810190915260059092020180546001600160a01b0316825260018101805492939192918401916103f390610e2c565b80601f016020809104026020016040519081016040528092919081815260200182805461041f90610e2c565b801561046c5780601f106104415761010080835404028352916020019161046c565b820191906000526020600020905b81548152906001019060200180831161044f57829003601f168201915b505050918352505060028201546020820152600382015460ff16604082015260049091015460609091015282518390839081106104ab576104ab610e16565b602090810291909101015260010161037f565b50925050505b92915050565b60018160ff16101580156104e25750600560ff821611155b6104fe5760405162461bcd60e51b81526004016102be90610dc6565b336000908152600260205260409020828155600181015483111561052457600181018390555b83516060901561055f5761053733610940565b85604051602001610549929190610e66565b604051602081830303815290604052905061056b565b61056833610940565b90505b6040805160a081018252338152602080820184815282840188905260ff87166060840181905242608085015260009081526003835293842080546001808201835591865292909420835160059093020180546001600160a01b0319166001600160a01b039093169290921782555191928392908201906105eb9082610f02565b506040828101516002830155606083015160038301805460ff191660ff90921691909117905560809092015160049182015560015491516340c10f1960e01b81523391810191909152602481018790526001600160a01b03909116906340c10f1990604401600060405180830381600087803b15801561066a57600080fd5b505af115801561067e573d6000803e3d6000fd5b50505050336001600160a01b03167f44bb76648b95c2377a7e007668a351f0c8a6e49f6dc629e29131f28f52ecc570838787426040516106c19493929190610fc2565b60405180910390a260405185815233907f3f2c9d57c068687834f0de942a9babb9e5acab57d516d3480a3c16ee165a42739060200160405180910390a2505050505050565b6003602052816000526040600020818154811061072257600080fd5b6000918252602090912060059091020180546001820180546001600160a01b03909216945091925061075390610e2c565b80601f016020809104026020016040519081016040528092919081815260200182805461077f90610e2c565b80156107cc5780601f106107a1576101008083540402835291602001916107cc565b820191906000526020600020905b8154815290600101906020018083116107af57829003601f168201915b50505050600283015460038401546004909401549293909260ff909116915085565b60018160ff16101580156108065750600560ff821611155b6108225760405162461bcd60e51b81526004016102be90610dc6565b33600090815260026020819052604082200180549161084083610ff4565b90915550506040805160ff8316815242602082015233917f1aa65d34adf10bea00c27032fb6ce87a065fb7678119e19aa7ed3952f868adb4910160405180910390a250565b61088d6108c3565b6001600160a01b0381166108b757604051631e4fbdf760e01b8152600060048201526024016102be565b6108c0816108f0565b50565b6000546001600160a01b031633146102865760405163118cdaa760e01b81523360048201526024016102be565b600080546001600160a01b038381166001600160a01b0319831681178455604051919092169283917f8be0079c531659141344cd1fd0a4f28419497f9722a3daafe3b4186f6b6457e09190a35050565b604080518082018252601081526f181899199a1a9b1b9c1cb0b131b232b360811b60208201528151602a80825260608281019094526001600160a01b0385169291600091602082018180368337019050509050600360fc1b816000815181106109ab576109ab610e16565b60200101906001600160f81b031916908160001a905350600f60fb1b816001815181106109da576109da610e16565b60200101906001600160f81b031916908160001a90535060005b6014811015610b185782600485610a0c84600c61100d565b60208110610a1c57610a1c610e16565b1a60f81b6001600160f81b031916901c60f81c60ff1681518110610a4257610a42610e16565b01602001516001600160f81b03191682610a5d836002611020565b610a6890600261100d565b81518110610a7857610a78610e16565b60200101906001600160f81b031916908160001a9053508284610a9c83600c61100d565b60208110610aac57610aac610e16565b825191901a600f16908110610ac357610ac3610e16565b01602001516001600160f81b03191682610ade836002611020565b610ae990600361100d565b81518110610af957610af9610e16565b60200101906001600160f81b031916908160001a9053506001016109f4565b50949350505050565b600060208284031215610b3357600080fd5b81356001600160a01b0381168114610b4a57600080fd5b9392505050565b803560ff81168114610b6257600080fd5b919050565b60008060408385031215610b7a57600080fd5b610b8383610b51565b946020939093013593505050565b60005b83811015610bac578181015183820152602001610b94565b50506000910152565b60008151808452610bcd816020860160208601610b91565b601f01601f19169290920160200192915050565b600060208083018184528085518083526040925060408601915060408160051b87010184880160005b83811015610c7857888303603f19018552815180516001600160a01b031684528781015160a089860181905290610c4382870182610bb5565b838a0151878b015260608085015160ff1690880152608093840151939096019290925250509386019390860190600101610c0a565b509098975050505050505050565b634e487b7160e01b600052604160045260246000fd5b600080600060608486031215610cb157600080fd5b833567ffffffffffffffff80821115610cc957600080fd5b818601915086601f830112610cdd57600080fd5b813581811115610cef57610cef610c86565b604051601f8201601f19908116603f01168101908382118183101715610d1757610d17610c86565b81604052828152896020848701011115610d3057600080fd5b82602086016020830137600060208483010152809750505050505060208401359150610d5e60408501610b51565b90509250925092565b6001600160a01b038616815260a060208201819052600090610d8b90830187610bb5565b60408301959095525060ff92909216606083015260809091015292915050565b600060208284031215610dbd57600080fd5b610b4a82610b51565b6020808252600d908201526c125b9d985b1a59081b195d995b609a1b604082015260600190565b634e487b7160e01b600052601160045260246000fd5b818103818111156104c4576104c4610ded565b634e487b7160e01b600052603260045260246000fd5b600181811c90821680610e4057607f821691505b602082108103610e6057634e487b7160e01b600052602260045260246000fd5b50919050565b60008351610e78818460208801610b91565b61040560f31b9083019081528351610e97816002840160208801610b91565b602960f81b60029290910191820152600301949350505050565b601f821115610efd576000816000526020600020601f850160051c81016020861015610eda5750805b601f850160051c820191505b81811015610ef957828155600101610ee6565b5050505b505050565b815167ffffffffffffffff811115610f1c57610f1c610c86565b610f3081610f2a8454610e2c565b84610eb1565b602080601f831160018114610f655760008415610f4d5750858301515b600019600386901b1c1916600185901b178555610ef9565b600085815260208120601f198616915b82811015610f9457888601518255948401946001909101908401610f75565b5085821015610fb25787850151600019600388901b60f8161c191681555b5050505050600190811b01905550565b608081526000610fd56080830187610bb5565b60208301959095525060ff929092166040830152606090910152919050565b60006001820161100657611006610ded565b5060010190565b808201808211156104c4576104c4610ded565b80820281158282048414176104c4576104c4610ded56fea26469706673582212206ed329c9119e88e1371092cd7c404654a02b5c685eeb9f294a95744468bb771964736f6c63430008170033",
  "linkReferences": {},
  "deployedLinkReferences": {}
}