{
  "_format": "hh-sol-artifact-1",
  "contractName": "SnakeGame",
  "sourceName": "contracts/snake.sol",
  "abi": [
    {
      "inputs": [
        {
          "internalType": "address",
          "name": "_uloTokenAddress",
          "type": "address"
        }
      ],
      "stateMutability": "nonpayable",
      "type": "constructor"
    },
    {
      "inputs": [
        {
          "internalType": "address",
          "name": "owner",
          "type": "address"
        }
      ],
      "name": "OwnableInvalidOwner",
      "type": "error"
    },
    {
      "inputs": [
        {
          "internalType": "address",
          "name": "account",
          "type": "address"
        }
      ],
      "name": "OwnableUnauthorizedAccount",
      "type": "error"
    },
    {
      "anonymous": false,
      "inputs": [
        {
          "indexed": true,
          "internalType": "address",
          "name": "player",
          "type": "address"
        },
        {
          "indexed": false,
          "internalType": "uint256",
          "name": "score",
          "type": "uint256"
        },
        {
          "indexed": false,
          "internalType": "uint8",
          "name": "level",
          "type": "uint8"
        },
        {
          "indexed": false,
          "internalType": "uint256",
          "name": "timestamp",
          "type": "uint256"
        }
      ],
      "name": "GameEnded",
      "type": "event"
    },
    {
      "anonymous": false,
      "inputs": [
        {
          "indexed": true,
          "internalType": "address",
          "name": "player",
          "type": "address"
        },
        {
          "indexed": false,
          "internalType": "uint8",
          "name": "level",
          "type": "uint8"
        },
        {
          "indexed": false,
          "internalType": "uint256",
          "name": "timestamp",
          "type": "uint256"
        }
      ],
      "name": "GameStarted",
      "type": "event"
    },
    {
      "anonymous": false,
      "inputs": [
        {
          "indexed": true,
          "internalType": "address",
          "name": "previousOwner",
          "type": "address"
        },
        {
          "indexed": true,
          "internalType": "address",
          "name": "newOwner",
          "type": "address"
        }
      ],
      "name": "OwnershipTransferred",
      "type": "event"
    },
    {
      "anonymous": false,
      "inputs": [
        {
          "indexed": true,
          "internalType": "address",
          "name": "player",
          "type": "address"
        },
        {
          "indexed": false,
          "internalType": "string",
          "name": "playerName",
          "type": "string"
        },
        {
          "indexed": false,
          "internalType": "uint256",
          "name": "score",
          "type": "uint256"
        },
        {
          "indexed": false,
          "internalType": "uint8",
          "name": "level",
          "type": "uint8"
        }
      ],
      "name": "ScoreSubmitted",
      "type": "event"
    },
    {
      "anonymous": false,
      "inputs": [
        {
          "indexed": true,
          "internalType": "address",
          "name": "player",
          "type": "address"
        },
        {
          "indexed": false,
          "internalType": "uint256",
          "name": "amount",
          "type": "uint256"
        }
      ],
      "name": "TokensMinted",
      "type": "event"
    },
    {
      "inputs": [],
      "name": "MAX_LEVELS",
      "outputs": [
        {
          "internalType": "uint8",
          "name": "",
          "type": "uint8"
        }
      ],
      "stateMutability": "view",
      "type": "function"
    },
    {
      "inputs": [
        {
          "internalType": "string",
          "name": "playerName",
          "type": "string"
        },
        {
          "internalType": "uint256",
          "name": "score",
          "type": "uint256"
        },
        {
          "internalType": "uint8",
          "name": "level",
          "type": "uint8"
        }
      ],
      "name": "endGame",
      "outputs": [],
      "stateMutability": "nonpayable",
      "type": "function"
    },
    {
      "inputs": [
        {
          "internalType": "address",
          "name": "playerAddress",
          "type": "address"
        }
      ],
      "name": "getPlayerStatus",
      "outputs": [
        {
          "components": [
            {
              "internalType": "bool",
              "name": "isPlaying",
              "type": "bool"
            },
            {
              "internalType": "uint256",
              "name": "lastScore",
              "type": "uint256"
            },
            {
              "internalType": "uint256",
              "name": "highestScore",
              "type": "uint256"
            },
            {
              "internalType": "uint256",
              "name": "gamesPlayed",
              "type": "uint256"
            }
          ],
          "internalType": "struct SnakeGame.Player",
          "name": "",
          "type": "tuple"
        }
      ],
      "stateMutability": "view",
      "type": "function"
    },
    {
      "inputs": [
        {
          "internalType": "uint8",
          "name": "level",
          "type": "uint8"
        },
        {
          "internalType": "uint256",
          "name": "limit",
          "type": "uint256"
        }
      ],
      "name": "getRecentScores",
      "outputs": [
        {
          "components": [
            {
              "internalType": "address",
              "name": "player",
              "type": "address"
            },
            {
              "internalType": "string",
              "name": "playerName",
              "type": "string"
            },
            {
              "internalType": "uint256",
              "name": "score",
              "type": "uint256"
            },
            {
              "internalType": "uint8",
              "name": "level",
              "type": "uint8"
            },
            {
              "internalType": "uint256",
              "name": "timestamp",
              "type": "uint256"
            }
          ],
          "internalType": "struct SnakeGame.Score[]",
          "name": "",
          "type": "tuple[]"
        }
      ],
      "stateMutability": "view",
      "type": "function"
    },
    {
      "inputs": [
        {
          "internalType": "uint8",
          "name": "level",
          "type": "uint8"
        },
        {
          "internalType": "uint256",
          "name": "start",
          "type": "uint256"
        },
        {
          "internalType": "uint256",
          "name": "end",
          "type": "uint256"
        }
      ],
      "name": "getScoresByRange",
      "outputs": [
        {
          "components": [
            {
              "internalType": "address",
              "name": "player",
              "type": "address"
            },
            {
              "internalType": "string",
              "name": "playerName",
              "type": "string"
            },
            {
              "internalType": "uint256",
              "name": "score",
              "type": "uint256"
            },
            {
              "internalType": "uint8",
              "name": "level",
              "type": "uint8"
            },
            {
              "internalType": "uint256",
              "name": "timestamp",
              "type": "uint256"
            }
          ],
          "internalType": "struct SnakeGame.Score[]",
          "name": "",
          "type": "tuple[]"
        }
      ],
      "stateMutability": "view",
      "type": "function"
    },
    {
      "inputs": [
        {
          "internalType": "uint8",
          "name": "level",
          "type": "uint8"
        },
        {
          "internalType": "uint256",
          "name": "limit",
          "type": "uint256"
        }
      ],
      "name": "getTopScores",
      "outputs": [
        {
          "components": [
            {
              "internalType": "address",
              "name": "player",
              "type": "address"
            },
            {
              "internalType": "string",
              "name": "playerName",
              "type": "string"
            },
            {
              "internalType": "uint256",
              "name": "score",
              "type": "uint256"
            },
            {
              "internalType": "uint8",
              "name": "level",
              "type": "uint8"
            },
            {
              "internalType": "uint256",
              "name": "timestamp",
              "type": "uint256"
            }
          ],
          "internalType": "struct SnakeGame.Score[]",
          "name": "",
          "type": "tuple[]"
        }
      ],
      "stateMutability": "view",
      "type": "function"
    },
    {
      "inputs": [
        {
          "internalType": "uint8",
          "name": "level",
          "type": "uint8"
        }
      ],
      "name": "getTotalScores",
      "outputs": [
        {
          "internalType": "uint256",
          "name": "",
          "type": "uint256"
        }
      ],
      "stateMutability": "view",
      "type": "function"
    },
    {
      "inputs": [
        {
          "internalType": "uint8",
          "name": "",
          "type": "uint8"
        },
        {
          "internalType": "uint256",
          "name": "",
          "type": "uint256"
        }
      ],
      "name": "leaderboards",
      "outputs": [
        {
          "internalType": "address",
          "name": "player",
          "type": "address"
        },
        {
          "internalType": "string",
          "name": "playerName",
          "type": "string"
        },
        {
          "internalType": "uint256",
          "name": "score",
          "type": "uint256"
        },
        {
          "internalType": "uint8",
          "name": "level",
          "type": "uint8"
        },
        {
          "internalType": "uint256",
          "name": "timestamp",
          "type": "uint256"
        }
      ],
      "stateMutability": "view",
      "type": "function"
    },
    {
      "inputs": [],
      "name": "owner",
      "outputs": [
        {
          "internalType": "address",
          "name": "",
          "type": "address"
        }
      ],
      "stateMutability": "view",
      "type": "function"
    },
    {
      "inputs": [
        {
          "internalType": "address",
          "name": "",
          "type": "address"
        }
      ],
      "name": "players",
      "outputs": [
        {
          "internalType": "bool",
          "name": "isPlaying",
          "type": "bool"
        },
        {
          "internalType": "uint256",
          "name": "lastScore",
          "type": "uint256"
        },
        {
          "internalType": "uint256",
          "name": "highestScore",
          "type": "uint256"
        },
        {
          "internalType": "uint256",
          "name": "gamesPlayed",
          "type": "uint256"
        }
      ],
      "stateMutability": "view",
      "type": "function"
    },
    {
      "inputs": [],
      "name": "renounceOwnership",
      "outputs": [],
      "stateMutability": "nonpayable",
      "type": "function"
    },
    {
      "inputs": [
        {
          "internalType": "uint8",
          "name": "level",
          "type": "uint8"
        }
      ],
      "name": "startGame",
      "outputs": [],
      "stateMutability": "nonpayable",
      "type": "function"
    },
    {
      "inputs": [
        {
          "internalType": "address",
          "name": "newOwner",
          "type": "address"
        }
      ],
      "name": "transferOwnership",
      "outputs": [],
      "stateMutability": "nonpayable",
      "type": "function"
    },
    {
      "inputs": [],
      "name": "uloToken",
      "outputs": [
        {
          "internalType": "contract ULOToken",
          "name": "",
          "type": "address"
        }
      ],
      "stateMutability": "view",
      "type": "function"
    },
    {
      "inputs": [],
      "name": "withdrawFunds",
      "outputs": [],
      "stateMutability": "nonpayable",
      "type": "function"
    }
  ],
  "bytecode": "0x608060405234801561001057600080fd5b506040516117ea3803806117ea83398101604081905261002f916100d4565b338061005557604051631e4fbdf760e01b81526000600482015260240160405180910390fd5b61005e81610084565b50600180546001600160a01b0319166001600160a01b0392909216919091179055610104565b600080546001600160a01b038381166001600160a01b0319831681178455604051919092169283917f8be0079c531659141344cd1fd0a4f28419497f9722a3daafe3b4186f6b6457e09190a35050565b6000602082840312156100e657600080fd5b81516001600160a01b03811681146100fd57600080fd5b9392505050565b6116d7806101136000396000f3fe608060405234801561001057600080fd5b50600436106100f55760003560e01c8063715018a611610097578063b4d4e1c911610066578063b4d4e1c914610229578063e2eb41ff1461024d578063e6ab6079146102aa578063f2fde38b146102bd57600080fd5b8063715018a6146101ea5780638da5cb5b146101f25780639200daa4146102035780639f4ade471461021657600080fd5b806324600fc3116100d357806324600fc31461019357806336e6d47d1461019d5780633955f7ed146101b05780636702c7bf146101d057600080fd5b80630f3aa104146100fa5780630f45db911461012a57806313dc021c14610172575b600080fd5b60015461010d906001600160a01b031681565b6040516001600160a01b0390911681526020015b60405180910390f35b61013d6101383660046111e3565b6102d0565b604051610121919081511515815260208083015190820152604080830151908201526060918201519181019190915260800190565b610185610180366004611229565b61034d565b604051908152602001610121565b61019b6103a2565b005b61019b6101ab36600461125a565b6103e7565b6101c36101be366004611325565b610560565b6040516101219190611395565b6101d8600581565b60405160ff9091168152602001610121565b61019b6108df565b6000546001600160a01b031661010d565b6101c3610211366004611325565b6108f3565b6101c361022436600461143a565b610af4565b61023c610237366004611325565b610dc9565b60405161012195949392919061146d565b61028861025b3660046111e3565b6002602081905260009182526040909120805460018201549282015460039092015460ff90911692919084565b6040805194151585526020850193909352918301526060820152608001610121565b61019b6102b8366004611229565b610eb1565b61019b6102cb3660046111e3565b61100a565b6102fd60405180608001604052806000151581526020016000815260200160008152602001600081525090565b506001600160a01b03166000908152600260208181526040928390208351608081018552815460ff1615158152600182015492810192909252918201549281019290925260030154606082015290565b600060018260ff16101580156103675750600560ff831611155b61038c5760405162461bcd60e51b8152600401610383906114b1565b60405180910390fd5b5060ff1660009081526003602052604090205490565b6103aa611045565b600080546040516001600160a01b03909116914780156108fc02929091818181858888f193505050501580156103e4573d6000803e3d6000fd5b50565b3360009081526002602052604090205460ff1661043d5760405162461bcd60e51b8152602060048201526014602482015273139bc81858dd1a5d994819d85b5948199bdd5b9960621b6044820152606401610383565b336000908152600260208190526040909120805460ff19168155600181018490559081015483111561047157600281018390555b61047c848484611072565b6001546040516340c10f1960e01b8152336004820152602481018590526001600160a01b03909116906340c10f1990604401600060405180830381600087803b1580156104c857600080fd5b505af11580156104dc573d6000803e3d6000fd5b50506040805186815260ff86166020820152428183015290513393507f917147e01c062acee54e3d798554f2752b17151c747e545bd54639db8cdbe7a192509081900360600190a260405183815233907f3f2c9d57c068687834f0de942a9babb9e5acab57d516d3480a3c16ee165a4273906020015b60405180910390a250505050565b606060018360ff161015801561057a5750600560ff841611155b6105965760405162461bcd60e51b8152600401610383906114b1565b60ff83166000908152600360205260408120805490919084106105ba5781546105bc565b835b905060008167ffffffffffffffff8111156105d9576105d9611244565b60405190808252806020026020018201604052801561061257816020015b6105ff6111a8565b8152602001906001900390816105f75790505b50835490915060009067ffffffffffffffff81111561063357610633611244565b60405190808252806020026020018201604052801561066c57816020015b6106596111a8565b8152602001906001900390816106515790505b50905060005b84548110156107985784818154811061068d5761068d6114d8565b60009182526020918290206040805160a0810190915260059092020180546001600160a01b0316825260018101805492939192918401916106cd906114ee565b80601f01602080910402602001604051908101604052809291908181526020018280546106f9906114ee565b80156107465780601f1061071b57610100808354040283529160200191610746565b820191906000526020600020905b81548152906001019060200180831161072957829003601f168201915b505050918352505060028201546020820152600382015460ff1660408201526004909101546060909101528251839083908110610785576107856114d8565b6020908102919091010152600101610672565b5060005b81518110156108865760006107b282600161153e565b90505b825181101561087d578281815181106107d0576107d06114d8565b6020026020010151604001518383815181106107ee576107ee6114d8565b6020026020010151604001511015610875576000838381518110610814576108146114d8565b60200260200101519050838281518110610830576108306114d8565b602002602001015184848151811061084a5761084a6114d8565b602002602001018190525080848381518110610868576108686114d8565b6020026020010181905250505b6001016107b5565b5060010161079c565b5060005b838110156108d1578181815181106108a4576108a46114d8565b60200260200101518382815181106108be576108be6114d8565b602090810291909101015260010161088a565b509093505050505b92915050565b6108e7611045565b6108f16000611158565b565b606060018360ff161015801561090d5750600560ff841611155b6109295760405162461bcd60e51b8152600401610383906114b1565b60ff831660009081526003602052604081208054909190841061094d57815461094f565b835b905060008167ffffffffffffffff81111561096c5761096c611244565b6040519080825280602002602001820160405280156109a557816020015b6109926111a8565b81526020019060019003908161098a5790505b50905060005b82811015610aea578354849082906109c590600190611551565b6109cf9190611551565b815481106109df576109df6114d8565b60009182526020918290206040805160a0810190915260059092020180546001600160a01b031682526001810180549293919291840191610a1f906114ee565b80601f0160208091040260200160405190810160405280929190818152602001828054610a4b906114ee565b8015610a985780601f10610a6d57610100808354040283529160200191610a98565b820191906000526020600020905b815481529060010190602001808311610a7b57829003601f168201915b505050918352505060028201546020820152600382015460ff1660408201526004909101546060909101528251839083908110610ad757610ad76114d8565b60209081029190910101526001016109ab565b5095945050505050565b606060018460ff1610158015610b0e5750600560ff851611155b610b2a5760405162461bcd60e51b8152600401610383906114b1565b81831115610b6a5760405162461bcd60e51b815260206004820152600d60248201526c496e76616c69642072616e676560981b6044820152606401610383565b60ff84166000908152600360205260409020548310610bcb5760405162461bcd60e51b815260206004820152601960248201527f537461727420696e646578206f7574206f6620626f756e6473000000000000006044820152606401610383565b60ff84166000908152600360205260408120548310610c085760ff8516600090815260036020526040902054610c0390600190611551565b610c0a565b825b90506000610c188583611551565b610c2390600161153e565b905060008167ffffffffffffffff811115610c4057610c40611244565b604051908082528060200260200182016040528015610c7957816020015b610c666111a8565b815260200190600190039081610c5e5790505b50905060005b82811015610dbe5760ff88166000908152600360205260409020610ca3828961153e565b81548110610cb357610cb36114d8565b60009182526020918290206040805160a0810190915260059092020180546001600160a01b031682526001810180549293919291840191610cf3906114ee565b80601f0160208091040260200160405190810160405280929190818152602001828054610d1f906114ee565b8015610d6c5780601f10610d4157610100808354040283529160200191610d6c565b820191906000526020600020905b815481529060010190602001808311610d4f57829003601f168201915b505050918352505060028201546020820152600382015460ff1660408201526004909101546060909101528251839083908110610dab57610dab6114d8565b6020908102919091010152600101610c7f565b509695505050505050565b60036020528160005260406000208181548110610de557600080fd5b6000918252602090912060059091020180546001820180546001600160a01b039092169450919250610e16906114ee565b80601f0160208091040260200160405190810160405280929190818152602001828054610e42906114ee565b8015610e8f5780601f10610e6457610100808354040283529160200191610e8f565b820191906000526020600020905b815481529060010190602001808311610e7257829003601f168201915b50505050600283015460038401546004909401549293909260ff909116915085565b60018160ff1610158015610ec95750600560ff821611155b610ee55760405162461bcd60e51b8152600401610383906114b1565b3360009081526002602052604090205460ff1615610f3e5760405162461bcd60e51b8152602060048201526016602482015275506c6179657220616c726561647920696e2067616d6560501b6044820152606401610383565b60408051608081018252600180825260006020808401829052338083526002808352868420808201549787019790975292525260039092015490916060830191610f879161153e565b9052336000818152600260208181526040928390208551815460ff19169015151781558582015160018201558584015192810192909255606090940151600390910155805160ff85168152429381019390935290917f1aa65d34adf10bea00c27032fb6ce87a065fb7678119e19aa7ed3952f868adb4910160405180910390a250565b611012611045565b6001600160a01b03811661103c57604051631e4fbdf760e01b815260006004820152602401610383565b6103e481611158565b6000546001600160a01b031633146108f15760405163118cdaa760e01b8152336004820152602401610383565b6040805160a081018252338152602080820186815282840186905260ff85166060840181905242608085015260009081526003835293842080546001808201835591865292909420835160059093020180546001600160a01b0319166001600160a01b039093169290921782555191928392908201906110f290826115b5565b506040828101516002830155606083015160038301805460ff191660ff9092169190911790556080909201516004909101555133907f595db3bbd3bcb6b6b43f1f330dfd0825e56503d61b8e64ba7b80e64d0c7ef93f9061055290879087908790611675565b600080546001600160a01b038381166001600160a01b0319831681178455604051919092169283917f8be0079c531659141344cd1fd0a4f28419497f9722a3daafe3b4186f6b6457e09190a35050565b6040518060a0016040528060006001600160a01b031681526020016060815260200160008152602001600060ff168152602001600081525090565b6000602082840312156111f557600080fd5b81356001600160a01b038116811461120c57600080fd5b9392505050565b803560ff8116811461122457600080fd5b919050565b60006020828403121561123b57600080fd5b61120c82611213565b634e487b7160e01b600052604160045260246000fd5b60008060006060848603121561126f57600080fd5b833567ffffffffffffffff8082111561128757600080fd5b818601915086601f83011261129b57600080fd5b8135818111156112ad576112ad611244565b604051601f8201601f19908116603f011681019083821181831017156112d5576112d5611244565b816040528281528960208487010111156112ee57600080fd5b8260208601602083013760006020848301015280975050505050506020840135915061131c60408501611213565b90509250925092565b6000806040838503121561133857600080fd5b61134183611213565b946020939093013593505050565b6000815180845260005b8181101561137557602081850181015186830182015201611359565b506000602082860101526020601f19601f83011685010191505092915050565b600060208083018184528085518083526040925060408601915060408160051b87010184880160005b8381101561142c57888303603f19018552815180516001600160a01b031684528781015160a0898601819052906113f78287018261134f565b838a0151878b015260608085015160ff16908801526080938401519390960192909252505093860193908601906001016113be565b509098975050505050505050565b60008060006060848603121561144f57600080fd5b61145884611213565b95602085013595506040909401359392505050565b6001600160a01b038616815260a0602082018190526000906114919083018761134f565b60408301959095525060ff92909216606083015260809091015292915050565b6020808252600d908201526c125b9d985b1a59081b195d995b609a1b604082015260600190565b634e487b7160e01b600052603260045260246000fd5b600181811c9082168061150257607f821691505b60208210810361152257634e487b7160e01b600052602260045260246000fd5b50919050565b634e487b7160e01b600052601160045260246000fd5b808201808211156108d9576108d9611528565b818103818111156108d9576108d9611528565b601f8211156115b0576000816000526020600020601f850160051c8101602086101561158d5750805b601f850160051c820191505b818110156115ac57828155600101611599565b5050505b505050565b815167ffffffffffffffff8111156115cf576115cf611244565b6115e3816115dd84546114ee565b84611564565b602080601f83116001811461161857600084156116005750858301515b600019600386901b1c1916600185901b1785556115ac565b600085815260208120601f198616915b8281101561164757888601518255948401946001909101908401611628565b50858210156116655787850151600019600388901b60f8161c191681555b5050505050600190811b01905550565b606081526000611688606083018661134f565b905083602083015260ff8316604083015294935050505056fea26469706673582212203e62ae8df66c73a495a93465db53e871dcc3a34016b2f19497c82db236a03a1064736f6c63430008170033",
  "linkReferences": {},
  "deployedLinkReferences": {}
}